{
  "contractName": "ItemManager",
  "abi": [
    {
      "anonymous": false,
      "inputs": [
        {
          "indexed": false,
          "internalType": "uint256",
          "name": "_itemIndex",
          "type": "uint256"
        },
        {
          "indexed": false,
          "internalType": "uint256",
          "name": "_step",
          "type": "uint256"
        },
        {
          "indexed": false,
          "internalType": "address",
          "name": "_itemAddress",
          "type": "address"
        }
      ],
      "name": "SupplyChainChange",
      "type": "event"
    },
    {
      "inputs": [],
      "name": "isOwner",
      "outputs": [
        {
          "internalType": "bool",
          "name": "",
          "type": "bool"
        }
      ],
      "stateMutability": "view",
      "type": "function",
      "constant": true
    },
    {
      "inputs": [
        {
          "internalType": "uint256",
          "name": "",
          "type": "uint256"
        }
      ],
      "name": "items",
      "outputs": [
        {
          "internalType": "contract Item",
          "name": "itemInstance",
          "type": "address"
        },
        {
          "internalType": "string",
          "name": "identifier",
          "type": "string"
        },
        {
          "internalType": "uint256",
          "name": "itemPrice",
          "type": "uint256"
        },
        {
          "internalType": "enum ItemManager.SupplyChainState",
          "name": "state",
          "type": "uint8"
        }
      ],
      "stateMutability": "view",
      "type": "function",
      "constant": true
    },
    {
      "inputs": [
        {
          "internalType": "string",
          "name": "_identifier",
          "type": "string"
        },
        {
          "internalType": "uint256",
          "name": "_itemPrice",
          "type": "uint256"
        }
      ],
      "name": "createItem",
      "outputs": [],
      "stateMutability": "nonpayable",
      "type": "function"
    },
    {
      "inputs": [
        {
          "internalType": "uint256",
          "name": "_itemIndex",
          "type": "uint256"
        }
      ],
      "name": "triggerPayment",
      "outputs": [],
      "stateMutability": "payable",
      "type": "function",
      "payable": true
    },
    {
      "inputs": [
        {
          "internalType": "uint256",
          "name": "_itemIndex",
          "type": "uint256"
        }
      ],
      "name": "triggerDelivery",
      "outputs": [],
      "stateMutability": "nonpayable",
      "type": "function"
    }
  ],
  "bytecode": "0x608060405234801561001057600080fd5b50336000806101000a81548173ffffffffffffffffffffffffffffffffffffffff021916908373ffffffffffffffffffffffffffffffffffffffff1602179055506117e4806100606000396000f3fe608060405260043610620000505760003560e01c8063800fb83f14620000555780638c55174214620000755780638f32d59b14620000a3578063bfb231d214620000d3578063cd31831e146200011a575b600080fd5b6200007360048036038101906200006d91906200097f565b62000148565b005b3480156200008257600080fd5b50620000a160048036038101906200009b919062000a1f565b62000329565b005b348015620000b057600080fd5b50620000bb62000565565b604051620000ca919062000aa6565b60405180910390f35b348015620000e057600080fd5b50620000ff6004803603810190620000f991906200097f565b620005bc565b60405162000111949392919062000c83565b60405180910390f35b3480156200012757600080fd5b506200014660048036038101906200014091906200097f565b620006a9565b005b600060028111156200015f576200015e62000c03565b5b6001600083815260200190815260200160002060030160009054906101000a900460ff16600281111562000198576200019762000c03565b5b14620001db576040517f08c379a0000000000000000000000000000000000000000000000000000000008152600401620001d29062000d27565b60405180910390fd5b3460016000838152602001908152602001600020600201541462000236576040517f08c379a00000000000000000000000000000000000000000000000000000000081526004016200022d9062000d99565b60405180910390fd5b600180600083815260200190815260200160002060030160006101000a81548160ff0219169083600281111562000272576200027162000c03565b5b02179055507f4e5061bf13f6782c2cae2ff1b4fd66da4ffe1b1adec1df0a6942632570da9cc060025460016000600254815260200190815260200160002060030160009054906101000a900460ff166002811115620002d657620002d562000c03565b5b6001600085815260200190815260200160002060000160009054906101000a900473ffffffffffffffffffffffffffffffffffffffff166040516200031e9392919062000de0565b60405180910390a150565b6200033362000565565b62000375576040517f08c379a00000000000000000000000000000000000000000000000000000000081526004016200036c9062000e6d565b60405180910390fd5b308160025460405162000388906200087c565b620003969392919062000ec8565b604051809103906000f080158015620003b3573d6000803e3d6000fd5b5060016000600254815260200190815260200160002060000160006101000a81548173ffffffffffffffffffffffffffffffffffffffff021916908373ffffffffffffffffffffffffffffffffffffffff16021790555082826001600060025481526020019081526020016000206001019190620004339291906200088a565b508060016000600254815260200190815260200160002060020181905550600060016000600254815260200190815260200160002060030160006101000a81548160ff0219169083600281111562000490576200048f62000c03565b5b02179055507f4e5061bf13f6782c2cae2ff1b4fd66da4ffe1b1adec1df0a6942632570da9cc060025460016000600254815260200190815260200160002060030160009054906101000a900460ff166002811115620004f457620004f362000c03565b5b60016000600254815260200190815260200160002060000160009054906101000a900473ffffffffffffffffffffffffffffffffffffffff166040516200053e9392919062000de0565b60405180910390a1600260008154809291906200055b9062000f34565b9190505550505050565b60008060009054906101000a900473ffffffffffffffffffffffffffffffffffffffff1673ffffffffffffffffffffffffffffffffffffffff163373ffffffffffffffffffffffffffffffffffffffff1614905090565b60016020528060005260406000206000915090508060000160009054906101000a900473ffffffffffffffffffffffffffffffffffffffff1690806001018054620006079062000fb1565b80601f0160208091040260200160405190810160405280929190818152602001828054620006359062000fb1565b8015620006865780601f106200065a5761010080835404028352916020019162000686565b820191906000526020600020905b8154815290600101906020018083116200066857829003601f168201915b5050505050908060020154908060030160009054906101000a900460ff16905084565b620006b362000565565b620006f5576040517f08c379a0000000000000000000000000000000000000000000000000000000008152600401620006ec9062000e6d565b60405180910390fd5b600160028111156200070c576200070b62000c03565b5b6001600083815260200190815260200160002060030160009054906101000a900460ff16600281111562000745576200074462000c03565b5b1462000788576040517f08c379a00000000000000000000000000000000000000000000000000000000081526004016200077f9062001037565b60405180910390fd5b60026001600083815260200190815260200160002060030160006101000a81548160ff02191690836002811115620007c557620007c462000c03565b5b02179055507f4e5061bf13f6782c2cae2ff1b4fd66da4ffe1b1adec1df0a6942632570da9cc060025460016000600254815260200190815260200160002060030160009054906101000a900460ff16600281111562000829576200082862000c03565b5b6001600085815260200190815260200160002060000160009054906101000a900473ffffffffffffffffffffffffffffffffffffffff16604051620008719392919062000de0565b60405180910390a150565b610755806200105a83390190565b828054620008989062000fb1565b90600052602060002090601f016020900481019282620008bc576000855562000908565b82601f10620008d757803560ff191683800117855562000908565b8280016001018555821562000908579182015b8281111562000907578235825591602001919060010190620008ea565b5b5090506200091791906200091b565b5090565b5b80821115620009365760008160009055506001016200091c565b5090565b600080fd5b600080fd5b6000819050919050565b620009598162000944565b81146200096557600080fd5b50565b60008135905062000979816200094e565b92915050565b6000602082840312156200099857620009976200093a565b5b6000620009a88482850162000968565b91505092915050565b600080fd5b600080fd5b600080fd5b60008083601f840112620009d957620009d8620009b1565b5b8235905067ffffffffffffffff811115620009f957620009f8620009b6565b5b60208301915083600182028301111562000a185762000a17620009bb565b5b9250929050565b60008060006040848603121562000a3b5762000a3a6200093a565b5b600084013567ffffffffffffffff81111562000a5c5762000a5b6200093f565b5b62000a6a86828701620009c0565b9350935050602062000a7f8682870162000968565b9150509250925092565b60008115159050919050565b62000aa08162000a89565b82525050565b600060208201905062000abd600083018462000a95565b92915050565b600073ffffffffffffffffffffffffffffffffffffffff82169050919050565b6000819050919050565b600062000b0e62000b0862000b028462000ac3565b62000ae3565b62000ac3565b9050919050565b600062000b228262000aed565b9050919050565b600062000b368262000b15565b9050919050565b62000b488162000b29565b82525050565b600081519050919050565b600082825260208201905092915050565b60005b8381101562000b8a57808201518184015260208101905062000b6d565b8381111562000b9a576000848401525b50505050565b6000601f19601f8301169050919050565b600062000bbe8262000b4e565b62000bca818562000b59565b935062000bdc81856020860162000b6a565b62000be78162000ba0565b840191505092915050565b62000bfd8162000944565b82525050565b7f4e487b7100000000000000000000000000000000000000000000000000000000600052602160045260246000fd5b6003811062000c465762000c4562000c03565b5b50565b600081905062000c598262000c32565b919050565b600062000c6b8262000c49565b9050919050565b62000c7d8162000c5e565b82525050565b600060808201905062000c9a600083018762000b3d565b818103602083015262000cae818662000bb1565b905062000cbf604083018562000bf2565b62000cce606083018462000c72565b95945050505050565b7f4974656d20697320616c72656164792070617965640000000000000000000000600082015250565b600062000d0f60158362000b59565b915062000d1c8262000cd7565b602082019050919050565b6000602082019050818103600083015262000d428162000d00565b9050919050565b7f4f6e6c792066756c6c207061796d656e74732061636365707465640000000000600082015250565b600062000d81601b8362000b59565b915062000d8e8262000d49565b602082019050919050565b6000602082019050818103600083015262000db48162000d72565b9050919050565b600062000dc88262000ac3565b9050919050565b62000dda8162000dbb565b82525050565b600060608201905062000df7600083018662000bf2565b62000e06602083018562000bf2565b62000e15604083018462000dcf565b949350505050565b7f596f7520617265206e6f7420746865206f776e65720000000000000000000000600082015250565b600062000e5560158362000b59565b915062000e628262000e1d565b602082019050919050565b6000602082019050818103600083015262000e888162000e46565b9050919050565b600062000e9c8262000aed565b9050919050565b600062000eb08262000e8f565b9050919050565b62000ec28162000ea3565b82525050565b600060608201905062000edf600083018662000eb7565b62000eee602083018562000bf2565b62000efd604083018462000bf2565b949350505050565b7f4e487b7100000000000000000000000000000000000000000000000000000000600052601160045260246000fd5b600062000f418262000944565b91507fffffffffffffffffffffffffffffffffffffffffffffffffffffffffffffffff82141562000f775762000f7662000f05565b5b600182019050919050565b7f4e487b7100000000000000000000000000000000000000000000000000000000600052602260045260246000fd5b6000600282049050600182168062000fca57607f821691505b6020821081141562000fe15762000fe062000f82565b5b50919050565b7f4974656d20697320616c72656164792064656c69766572656400000000000000600082015250565b60006200101f60198362000b59565b91506200102c8262000fe7565b602082019050919050565b60006020820190508181036000830152620010528162001010565b905091905056fe608060405234801561001057600080fd5b5060405161075538038061075583398181016040528101906100329190610134565b816000819055508060028190555082600360006101000a81548173ffffffffffffffffffffffffffffffffffffffff021916908373ffffffffffffffffffffffffffffffffffffffff160217905550505050610187565b600080fd5b600073ffffffffffffffffffffffffffffffffffffffff82169050919050565b60006100b98261008e565b9050919050565b60006100cb826100ae565b9050919050565b6100db816100c0565b81146100e657600080fd5b50565b6000815190506100f8816100d2565b92915050565b6000819050919050565b610111816100fe565b811461011c57600080fd5b50565b60008151905061012e81610108565b92915050565b60008060006060848603121561014d5761014c610089565b5b600061015b868287016100e9565b935050602061016c8682870161011f565b925050604061017d8682870161011f565b9150509250925092565b6105bf806101966000396000f3fe6080604052600436106100385760003560e01c80632986c0e51461025757806389794d001461028257806399af715b146102ad57610248565b3661024857600060015414610082576040517f08c379a000000000000000000000000000000000000000000000000000000000815260040161007990610347565b60405180910390fd5b34600054146100c6576040517f08c379a00000000000000000000000000000000000000000000000000000000081526004016100bd906103b3565b60405180910390fd5b600154600160008282546100da919061040c565b925050819055506000600360009054906101000a900473ffffffffffffffffffffffffffffffffffffffff1673ffffffffffffffffffffffffffffffffffffffff1634611388906002546040516024016101349190610471565b6040516020818303038152906040527f800fb83f000000000000000000000000000000000000000000000000000000007bffffffffffffffffffffffffffffffffffffffffffffffffffffffff19166020820180517bffffffffffffffffffffffffffffffffffffffffffffffffffffffff83818316178352505050506040516101be9190610506565b600060405180830381858888f193505050503d80600081146101fc576040519150601f19603f3d011682016040523d82523d6000602084013e610201565b606091505b5050905080610245576040517f08c379a000000000000000000000000000000000000000000000000000000000815260040161023c90610569565b60405180910390fd5b50005b34801561025457600080fd5b50005b34801561026357600080fd5b5061026c6102d8565b6040516102799190610471565b60405180910390f35b34801561028e57600080fd5b506102976102de565b6040516102a49190610471565b60405180910390f35b3480156102b957600080fd5b506102c26102e4565b6040516102cf9190610471565b60405180910390f35b60025481565b60015481565b60005481565b600082825260208201905092915050565b7f4974656d206973207061696420616c7265616479000000000000000000000000600082015250565b60006103316014836102ea565b915061033c826102fb565b602082019050919050565b6000602082019050818103600083015261036081610324565b9050919050565b7f4f6e6c792066756c6c207061796d656e7420697320616c6c6f77656400000000600082015250565b600061039d601c836102ea565b91506103a882610367565b602082019050919050565b600060208201905081810360008301526103cc81610390565b9050919050565b6000819050919050565b7f4e487b7100000000000000000000000000000000000000000000000000000000600052601160045260246000fd5b6000610417826103d3565b9150610422836103d3565b9250827fffffffffffffffffffffffffffffffffffffffffffffffffffffffffffffffff03821115610457576104566103dd565b5b828201905092915050565b61046b816103d3565b82525050565b60006020820190506104866000830184610462565b92915050565b600081519050919050565b600081905092915050565b60005b838110156104c05780820151818401526020810190506104a5565b838111156104cf576000848401525b50505050565b60006104e08261048c565b6104ea8185610497565b93506104fa8185602086016104a2565b80840191505092915050565b600061051282846104d5565b915081905092915050565b7f546865207472616e73616374696f6e20686173206661696c6564000000000000600082015250565b6000610553601a836102ea565b915061055e8261051d565b602082019050919050565b6000602082019050818103600083015261058281610546565b905091905056fea26469706673582212203e8a803b4bdf776b286ddf2c8a9d046e43439388128a10fe28d2cfd7aa46f46d64736f6c63430008090033a264697066735822122078d162e212721ca3425f033c09287e5c824b114ede95a86ebb73cad7f766480d64736f6c63430008090033",
  "immutableReferences": {},
  "source": "// SPDX-License-Identifier: MIT\r\npragma solidity >= 0.8.0 < 0.9.0;\r\n\r\nimport \"./Ownable.sol\";\r\nimport \"./Item.sol\";\r\n\r\ncontract ItemManager is Ownable{\r\n    \r\n    enum SupplyChainState{Created, Paid, Delivered}\r\n    \r\n    struct ItemStruct {\r\n        Item itemInstance;\r\n        string identifier;\r\n        uint itemPrice;\r\n        ItemManager.SupplyChainState state;\r\n    }\r\n    \r\n    mapping(uint => ItemStruct) public items;\r\n    uint itemIndex;\r\n    \r\n    event SupplyChainChange(uint _itemIndex, uint _step, address _itemAddress);\r\n    \r\n    function createItem(string calldata _identifier, uint _itemPrice) public onlyOwner{\r\n        items[itemIndex].itemInstance = new Item(this, _itemPrice, itemIndex);\r\n        items[itemIndex].identifier = _identifier;\r\n        items[itemIndex].itemPrice = _itemPrice;\r\n        items[itemIndex].state = SupplyChainState.Created;\r\n        emit SupplyChainChange(itemIndex, uint(items[itemIndex].state), address(items[itemIndex].itemInstance));\r\n        itemIndex++;\r\n    }\r\n    \r\n    function triggerPayment(uint _itemIndex) public payable {\r\n        require(items[_itemIndex].state == SupplyChainState.Created, \"Item is already payed\");\r\n        require(items[_itemIndex].itemPrice == msg.value, \"Only full payments accepted\");\r\n        \r\n        items[_itemIndex].state = SupplyChainState.Paid;\r\n        \r\n        emit SupplyChainChange(itemIndex, uint(items[itemIndex].state), address(items[_itemIndex].itemInstance));\r\n    }\r\n    \r\n    function triggerDelivery(uint _itemIndex) public onlyOwner {\r\n        require(items[_itemIndex].state == SupplyChainState.Paid, \"Item is already delivered\");\r\n        \r\n        items[_itemIndex].state = SupplyChainState.Delivered;\r\n        \r\n        emit SupplyChainChange(itemIndex, uint(items[itemIndex].state), address(items[_itemIndex].itemInstance));\r\n        \r\n    }\r\n}",
  "sourcePath": "S:\\Portolio\\solidity-projects\\supply-chain-udemy\\contracts\\ItemManager.sol",
  "compiler": {
    "name": "solc",
    "version": "0.8.9+commit.e5eed63a.Emscripten.clang"
  },
  "schemaVersion": "3.4.3",
  "updatedAt": "2021-11-06T16:13:45.862Z",
  "networkType": "ethereum",
  "devdoc": {
    "kind": "dev",
    "methods": {},
    "version": 1
  },
  "userdoc": {
    "kind": "user",
    "methods": {},
    "version": 1
  }
}