{
  "contractName": "Item",
  "abi": [
    {
      "inputs": [
        {
          "internalType": "contract ItemManager",
          "name": "_parentContract",
          "type": "address"
        },
        {
          "internalType": "uint256",
          "name": "_priceInWey",
          "type": "uint256"
        },
        {
          "internalType": "uint256",
          "name": "_index",
          "type": "uint256"
        }
      ],
      "stateMutability": "nonpayable",
      "type": "constructor"
    },
    {
      "stateMutability": "nonpayable",
      "type": "fallback"
    },
    {
      "inputs": [],
      "name": "index",
      "outputs": [
        {
          "internalType": "uint256",
          "name": "",
          "type": "uint256"
        }
      ],
      "stateMutability": "view",
      "type": "function"
    },
    {
      "inputs": [],
      "name": "pricePaid",
      "outputs": [
        {
          "internalType": "uint256",
          "name": "",
          "type": "uint256"
        }
      ],
      "stateMutability": "view",
      "type": "function"
    },
    {
      "inputs": [],
      "name": "princeInWei",
      "outputs": [
        {
          "internalType": "uint256",
          "name": "",
          "type": "uint256"
        }
      ],
      "stateMutability": "view",
      "type": "function"
    },
    {
      "stateMutability": "payable",
      "type": "receive"
    }
  ],
  "bytecode": "0x608060405234801561001057600080fd5b5060405161075538038061075583398181016040528101906100329190610134565b816000819055508060028190555082600360006101000a81548173ffffffffffffffffffffffffffffffffffffffff021916908373ffffffffffffffffffffffffffffffffffffffff160217905550505050610187565b600080fd5b600073ffffffffffffffffffffffffffffffffffffffff82169050919050565b60006100b98261008e565b9050919050565b60006100cb826100ae565b9050919050565b6100db816100c0565b81146100e657600080fd5b50565b6000815190506100f8816100d2565b92915050565b6000819050919050565b610111816100fe565b811461011c57600080fd5b50565b60008151905061012e81610108565b92915050565b60008060006060848603121561014d5761014c610089565b5b600061015b868287016100e9565b935050602061016c8682870161011f565b925050604061017d8682870161011f565b9150509250925092565b6105bf806101966000396000f3fe6080604052600436106100385760003560e01c80632986c0e51461025757806389794d001461028257806399af715b146102ad57610248565b3661024857600060015414610082576040517f08c379a000000000000000000000000000000000000000000000000000000000815260040161007990610347565b60405180910390fd5b34600054146100c6576040517f08c379a00000000000000000000000000000000000000000000000000000000081526004016100bd906103b3565b60405180910390fd5b600154600160008282546100da919061040c565b925050819055506000600360009054906101000a900473ffffffffffffffffffffffffffffffffffffffff1673ffffffffffffffffffffffffffffffffffffffff1634611388906002546040516024016101349190610471565b6040516020818303038152906040527f800fb83f000000000000000000000000000000000000000000000000000000007bffffffffffffffffffffffffffffffffffffffffffffffffffffffff19166020820180517bffffffffffffffffffffffffffffffffffffffffffffffffffffffff83818316178352505050506040516101be9190610506565b600060405180830381858888f193505050503d80600081146101fc576040519150601f19603f3d011682016040523d82523d6000602084013e610201565b606091505b5050905080610245576040517f08c379a000000000000000000000000000000000000000000000000000000000815260040161023c90610569565b60405180910390fd5b50005b34801561025457600080fd5b50005b34801561026357600080fd5b5061026c6102d8565b6040516102799190610471565b60405180910390f35b34801561028e57600080fd5b506102976102de565b6040516102a49190610471565b60405180910390f35b3480156102b957600080fd5b506102c26102e4565b6040516102cf9190610471565b60405180910390f35b60025481565b60015481565b60005481565b600082825260208201905092915050565b7f4974656d206973207061696420616c7265616479000000000000000000000000600082015250565b60006103316014836102ea565b915061033c826102fb565b602082019050919050565b6000602082019050818103600083015261036081610324565b9050919050565b7f4f6e6c792066756c6c207061796d656e7420697320616c6c6f77656400000000600082015250565b600061039d601c836102ea565b91506103a882610367565b602082019050919050565b600060208201905081810360008301526103cc81610390565b9050919050565b6000819050919050565b7f4e487b7100000000000000000000000000000000000000000000000000000000600052601160045260246000fd5b6000610417826103d3565b9150610422836103d3565b9250827fffffffffffffffffffffffffffffffffffffffffffffffffffffffffffffffff03821115610457576104566103dd565b5b828201905092915050565b61046b816103d3565b82525050565b60006020820190506104866000830184610462565b92915050565b600081519050919050565b600081905092915050565b60005b838110156104c05780820151818401526020810190506104a5565b838111156104cf576000848401525b50505050565b60006104e08261048c565b6104ea8185610497565b93506104fa8185602086016104a2565b80840191505092915050565b600061051282846104d5565b915081905092915050565b7f546865207472616e73616374696f6e20686173206661696c6564000000000000600082015250565b6000610553601a836102ea565b915061055e8261051d565b602082019050919050565b6000602082019050818103600083015261058281610546565b905091905056fea26469706673582212203e8a803b4bdf776b286ddf2c8a9d046e43439388128a10fe28d2cfd7aa46f46d64736f6c63430008090033",
  "immutableReferences": {},
  "source": "// SPDX-License-Identifier: MIT\r\npragma solidity >= 0.8.0 < 0.9.0;\r\n\r\nimport \"./ItemManager.sol\";\r\n\r\ncontract Item {\r\n    uint public princeInWei;\r\n    uint public pricePaid;\r\n    uint public index;\r\n    \r\n    ItemManager parentContract;\r\n    \r\n    constructor(ItemManager _parentContract, uint _priceInWey, uint _index) {\r\n        princeInWei = _priceInWey;\r\n        index = _index;\r\n        parentContract = _parentContract;\r\n    }\r\n    \r\n    receive() external payable {\r\n        require(pricePaid == 0, \"Item is paid already\");\r\n        require(princeInWei == msg.value, \"Only full payment is allowed\");\r\n        pricePaid += pricePaid;\r\n        \r\n        (bool success, ) = address(parentContract).call{value: msg.value, gas: 5000}(\r\n            abi.encodeWithSignature(\"triggerPayment(uint256)\", index)\r\n        );\r\n        \r\n        require(success, \"The transaction has failed\");\r\n    }\r\n    \r\n    fallback() external {\r\n        \r\n    }\r\n}",
  "sourcePath": "S:\\Portolio\\solidity-projects\\supply-chain-udemy\\contracts\\Item.sol",
  "compiler": {
    "name": "solc",
    "version": "0.8.9+commit.e5eed63a.Emscripten.clang"
  },
  "schemaVersion": "3.4.3",
  "updatedAt": "2021-11-06T16:13:45.856Z",
  "networkType": "ethereum",
  "devdoc": {
    "kind": "dev",
    "methods": {},
    "version": 1
  },
  "userdoc": {
    "kind": "user",
    "methods": {},
    "version": 1
  }
}